{
  "transactions": [
    {
      "hash": "0xe0c02df2a55df5c50b8ee7732a449644a93bb9809dca1e24a8659afab5683ea2",
      "transactionType": "CREATE",
      "contractName": "RevToken",
      "contractAddress": "0xbCfB1bC0ce6c04D1adBbcDEE13e9f94E6fbDc64d",
      "function": null,
      "arguments": [
        "ccCoinOne",
        "CC1"
      ],
      "transaction": {
        "type": "0x02",
        "from": "0x06dae7ba3958ef288adb0b9b3732ec204e48bc47",
        "gas": "0xae48e",
        "value": "0x0",
        "data": "0x60806040523480156200001157600080fd5b5060405162000ae538038062000ae5833981016040819052620000349162000123565b818160036200004483826200021c565b5060046200005382826200021c565b5050505050620002e8565b634e487b7160e01b600052604160045260246000fd5b600082601f8301126200008657600080fd5b81516001600160401b0380821115620000a357620000a36200005e565b604051601f8301601f19908116603f01168101908282118183101715620000ce57620000ce6200005e565b81604052838152602092508683858801011115620000eb57600080fd5b600091505b838210156200010f5785820183015181830184015290820190620000f0565b600093810190920192909252949350505050565b600080604083850312156200013757600080fd5b82516001600160401b03808211156200014f57600080fd5b6200015d8683870162000074565b935060208501519150808211156200017457600080fd5b50620001838582860162000074565b9150509250929050565b600181811c90821680620001a257607f821691505b602082108103620001c357634e487b7160e01b600052602260045260246000fd5b50919050565b601f8211156200021757600081815260208120601f850160051c81016020861015620001f25750805b601f850160051c820191505b818110156200021357828155600101620001fe565b5050505b505050565b81516001600160401b038111156200023857620002386200005e565b62000250816200024984546200018d565b84620001c9565b602080601f8311600181146200028857600084156200026f5750858301515b600019600386901b1c1916600185901b17855562000213565b600085815260208120601f198616915b82811015620002b95788860151825594840194600190910190840162000298565b5085821015620002d85787850151600019600388901b60f8161c191681555b5050505050600190811b01905550565b6107ed80620002f86000396000f3fe608060405234801561001057600080fd5b50600436106100a95760003560e01c806340c10f191161007157806340c10f191461012357806370a082311461013657806379cc67901461015f57806395d89b4114610172578063a9059cbb1461017a578063dd62ed3e1461018d57600080fd5b806306fdde03146100ae578063095ea7b3146100cc57806318160ddd146100ef57806323b872dd14610101578063313ce56714610114575b600080fd5b6100b66101c6565b6040516100c39190610637565b60405180910390f35b6100df6100da3660046106a1565b610258565b60405190151581526020016100c3565b6002545b6040519081526020016100c3565b6100df61010f3660046106cb565b610272565b604051601281526020016100c3565b6100df6101313660046106a1565b610296565b6100f3610144366004610707565b6001600160a01b031660009081526020819052604090205490565b6100df61016d3660046106a1565b6102ab565b6100b66102b7565b6100df6101883660046106a1565b6102c6565b6100f361019b366004610729565b6001600160a01b03918216600090815260016020908152604080832093909416825291909152205490565b6060600380546101d59061075c565b80601f01602080910402602001604051908101604052809291908181526020018280546102019061075c565b801561024e5780601f106102235761010080835404028352916020019161024e565b820191906000526020600020905b81548152906001019060200180831161023157829003601f168201915b5050505050905090565b6000336102668185856102d4565b60019150505b92915050565b6000336102808582856102e6565b61028b858585610369565b506001949350505050565b60006102a283836103c8565b50600192915050565b60006102a28383610402565b6060600480546101d59061075c565b600033610266818585610369565b6102e18383836001610438565b505050565b6001600160a01b038381166000908152600160209081526040808320938616835292905220546000198114610363578181101561035457604051637dc7a0d960e11b81526001600160a01b038416600482015260248101829052604481018390526064015b60405180910390fd5b61036384848484036000610438565b50505050565b6001600160a01b03831661039357604051634b637e8f60e11b81526000600482015260240161034b565b6001600160a01b0382166103bd5760405163ec442f0560e01b81526000600482015260240161034b565b6102e183838361050d565b6001600160a01b0382166103f25760405163ec442f0560e01b81526000600482015260240161034b565b6103fe6000838361050d565b5050565b6001600160a01b03821661042c57604051634b637e8f60e11b81526000600482015260240161034b565b6103fe8260008361050d565b6001600160a01b0384166104625760405163e602df0560e01b81526000600482015260240161034b565b6001600160a01b03831661048c57604051634a1406b160e11b81526000600482015260240161034b565b6001600160a01b038085166000908152600160209081526040808320938716835292905220829055801561036357826001600160a01b0316846001600160a01b03167f8c5be1e5ebec7d5bd14f71427d1e84f3dd0314c0f7b2291e5b200ac8c7c3b925846040516104ff91815260200190565b60405180910390a350505050565b6001600160a01b03831661053857806002600082825461052d9190610796565b909155506105aa9050565b6001600160a01b0383166000908152602081905260409020548181101561058b5760405163391434e360e21b81526001600160a01b0385166004820152602481018290526044810183905260640161034b565b6001600160a01b03841660009081526020819052604090209082900390555b6001600160a01b0382166105c6576002805482900390556105e5565b6001600160a01b03821660009081526020819052604090208054820190555b816001600160a01b0316836001600160a01b03167fddf252ad1be2c89b69c2b068fc378daa952ba7f163c4a11628f55a4df523b3ef8360405161062a91815260200190565b60405180910390a3505050565b600060208083528351808285015260005b8181101561066457858101830151858201604001528201610648565b506000604082860101526040601f19601f8301168501019250505092915050565b80356001600160a01b038116811461069c57600080fd5b919050565b600080604083850312156106b457600080fd5b6106bd83610685565b946020939093013593505050565b6000806000606084860312156106e057600080fd5b6106e984610685565b92506106f760208501610685565b9150604084013590509250925092565b60006020828403121561071957600080fd5b61072282610685565b9392505050565b6000806040838503121561073c57600080fd5b61074583610685565b915061075360208401610685565b90509250929050565b600181811c9082168061077057607f821691505b60208210810361079057634e487b7160e01b600052602260045260246000fd5b50919050565b8082018082111561026c57634e487b7160e01b600052601160045260246000fdfea264697066735822122021d66f78036f586e25824a2027b66ae57bee6fd7957914eaeafa6bfc8314412b64736f6c634300081400330000000000000000000000000000000000000000000000000000000000000040000000000000000000000000000000000000000000000000000000000000008000000000000000000000000000000000000000000000000000000000000000096363436f696e4f6e65000000000000000000000000000000000000000000000000000000000000000000000000000000000000000000000000000000000000034343310000000000000000000000000000000000000000000000000000000000",
        "nonce": "0x20",
        "accessList": []
      },
      "additionalContracts": [],
      "isFixedGasLimit": false
    },
    {
      "hash": "0x23ca541b8c70336548aa534f1617576d1d473aa94f54f3a4eb2bd1e216c57adb",
      "transactionType": "CREATE",
      "contractName": "RevToken",
      "contractAddress": "0xcfEE544566ff8156bfC2C20d97f03882be4b5353",
      "function": null,
      "arguments": [
        "ccCoinTwo",
        "CC2"
      ],
      "transaction": {
        "type": "0x02",
        "from": "0x06dae7ba3958ef288adb0b9b3732ec204e48bc47",
        "gas": "0xae48e",
        "value": "0x0",
        "data": "0x60806040523480156200001157600080fd5b5060405162000ae538038062000ae5833981016040819052620000349162000123565b818160036200004483826200021c565b5060046200005382826200021c565b5050505050620002e8565b634e487b7160e01b600052604160045260246000fd5b600082601f8301126200008657600080fd5b81516001600160401b0380821115620000a357620000a36200005e565b604051601f8301601f19908116603f01168101908282118183101715620000ce57620000ce6200005e565b81604052838152602092508683858801011115620000eb57600080fd5b600091505b838210156200010f5785820183015181830184015290820190620000f0565b600093810190920192909252949350505050565b600080604083850312156200013757600080fd5b82516001600160401b03808211156200014f57600080fd5b6200015d8683870162000074565b935060208501519150808211156200017457600080fd5b50620001838582860162000074565b9150509250929050565b600181811c90821680620001a257607f821691505b602082108103620001c357634e487b7160e01b600052602260045260246000fd5b50919050565b601f8211156200021757600081815260208120601f850160051c81016020861015620001f25750805b601f850160051c820191505b818110156200021357828155600101620001fe565b5050505b505050565b81516001600160401b038111156200023857620002386200005e565b62000250816200024984546200018d565b84620001c9565b602080601f8311600181146200028857600084156200026f5750858301515b600019600386901b1c1916600185901b17855562000213565b600085815260208120601f198616915b82811015620002b95788860151825594840194600190910190840162000298565b5085821015620002d85787850151600019600388901b60f8161c191681555b5050505050600190811b01905550565b6107ed80620002f86000396000f3fe608060405234801561001057600080fd5b50600436106100a95760003560e01c806340c10f191161007157806340c10f191461012357806370a082311461013657806379cc67901461015f57806395d89b4114610172578063a9059cbb1461017a578063dd62ed3e1461018d57600080fd5b806306fdde03146100ae578063095ea7b3146100cc57806318160ddd146100ef57806323b872dd14610101578063313ce56714610114575b600080fd5b6100b66101c6565b6040516100c39190610637565b60405180910390f35b6100df6100da3660046106a1565b610258565b60405190151581526020016100c3565b6002545b6040519081526020016100c3565b6100df61010f3660046106cb565b610272565b604051601281526020016100c3565b6100df6101313660046106a1565b610296565b6100f3610144366004610707565b6001600160a01b031660009081526020819052604090205490565b6100df61016d3660046106a1565b6102ab565b6100b66102b7565b6100df6101883660046106a1565b6102c6565b6100f361019b366004610729565b6001600160a01b03918216600090815260016020908152604080832093909416825291909152205490565b6060600380546101d59061075c565b80601f01602080910402602001604051908101604052809291908181526020018280546102019061075c565b801561024e5780601f106102235761010080835404028352916020019161024e565b820191906000526020600020905b81548152906001019060200180831161023157829003601f168201915b5050505050905090565b6000336102668185856102d4565b60019150505b92915050565b6000336102808582856102e6565b61028b858585610369565b506001949350505050565b60006102a283836103c8565b50600192915050565b60006102a28383610402565b6060600480546101d59061075c565b600033610266818585610369565b6102e18383836001610438565b505050565b6001600160a01b038381166000908152600160209081526040808320938616835292905220546000198114610363578181101561035457604051637dc7a0d960e11b81526001600160a01b038416600482015260248101829052604481018390526064015b60405180910390fd5b61036384848484036000610438565b50505050565b6001600160a01b03831661039357604051634b637e8f60e11b81526000600482015260240161034b565b6001600160a01b0382166103bd5760405163ec442f0560e01b81526000600482015260240161034b565b6102e183838361050d565b6001600160a01b0382166103f25760405163ec442f0560e01b81526000600482015260240161034b565b6103fe6000838361050d565b5050565b6001600160a01b03821661042c57604051634b637e8f60e11b81526000600482015260240161034b565b6103fe8260008361050d565b6001600160a01b0384166104625760405163e602df0560e01b81526000600482015260240161034b565b6001600160a01b03831661048c57604051634a1406b160e11b81526000600482015260240161034b565b6001600160a01b038085166000908152600160209081526040808320938716835292905220829055801561036357826001600160a01b0316846001600160a01b03167f8c5be1e5ebec7d5bd14f71427d1e84f3dd0314c0f7b2291e5b200ac8c7c3b925846040516104ff91815260200190565b60405180910390a350505050565b6001600160a01b03831661053857806002600082825461052d9190610796565b909155506105aa9050565b6001600160a01b0383166000908152602081905260409020548181101561058b5760405163391434e360e21b81526001600160a01b0385166004820152602481018290526044810183905260640161034b565b6001600160a01b03841660009081526020819052604090209082900390555b6001600160a01b0382166105c6576002805482900390556105e5565b6001600160a01b03821660009081526020819052604090208054820190555b816001600160a01b0316836001600160a01b03167fddf252ad1be2c89b69c2b068fc378daa952ba7f163c4a11628f55a4df523b3ef8360405161062a91815260200190565b60405180910390a3505050565b600060208083528351808285015260005b8181101561066457858101830151858201604001528201610648565b506000604082860101526040601f19601f8301168501019250505092915050565b80356001600160a01b038116811461069c57600080fd5b919050565b600080604083850312156106b457600080fd5b6106bd83610685565b946020939093013593505050565b6000806000606084860312156106e057600080fd5b6106e984610685565b92506106f760208501610685565b9150604084013590509250925092565b60006020828403121561071957600080fd5b61072282610685565b9392505050565b6000806040838503121561073c57600080fd5b61074583610685565b915061075360208401610685565b90509250929050565b600181811c9082168061077057607f821691505b60208210810361079057634e487b7160e01b600052602260045260246000fd5b50919050565b8082018082111561026c57634e487b7160e01b600052601160045260246000fdfea264697066735822122021d66f78036f586e25824a2027b66ae57bee6fd7957914eaeafa6bfc8314412b64736f6c634300081400330000000000000000000000000000000000000000000000000000000000000040000000000000000000000000000000000000000000000000000000000000008000000000000000000000000000000000000000000000000000000000000000096363436f696e54776f000000000000000000000000000000000000000000000000000000000000000000000000000000000000000000000000000000000000034343320000000000000000000000000000000000000000000000000000000000",
        "nonce": "0x21",
        "accessList": []
      },
      "additionalContracts": [],
      "isFixedGasLimit": false
    },
    {
      "hash": "0x51a59776f7c9204d7106faf0b10c43015ea8caf0c64f9df2ba0e40bc2a88f66e",
      "transactionType": "CALL",
      "contractName": "RevToken",
      "contractAddress": "0xbCfB1bC0ce6c04D1adBbcDEE13e9f94E6fbDc64d",
      "function": "mint(address,uint256):(bool)",
      "arguments": [
        "0x539E70A18073436Eef2E3314A540A7c71dD4B57B",
        "10000000000000000000000000000"
      ],
      "transaction": {
        "type": "0x02",
        "from": "0x06dae7ba3958ef288adb0b9b3732ec204e48bc47",
        "to": "0xbcfb1bc0ce6c04d1adbbcdee13e9f94e6fbdc64d",
        "gas": "0x171be",
        "value": "0x0",
        "data": "0x40c10f19000000000000000000000000539e70a18073436eef2e3314a540a7c71dd4b57b0000000000000000000000000000000000000000204fce5e3e25026110000000",
        "nonce": "0x22",
        "accessList": []
      },
      "additionalContracts": [],
      "isFixedGasLimit": false
    },
    {
      "hash": "0xe14860faa02d506b64d1da6d66f8fe23ea177730c62d3651138195ef20c0c36d",
      "transactionType": "CALL",
      "contractName": "RevToken",
      "contractAddress": "0xcfEE544566ff8156bfC2C20d97f03882be4b5353",
      "function": "mint(address,uint256):(bool)",
      "arguments": [
        "0x539E70A18073436Eef2E3314A540A7c71dD4B57B",
        "10000000000000000000000000000"
      ],
      "transaction": {
        "type": "0x02",
        "from": "0x06dae7ba3958ef288adb0b9b3732ec204e48bc47",
        "to": "0xcfee544566ff8156bfc2c20d97f03882be4b5353",
        "gas": "0x171be",
        "value": "0x0",
        "data": "0x40c10f19000000000000000000000000539e70a18073436eef2e3314a540a7c71dd4b57b0000000000000000000000000000000000000000204fce5e3e25026110000000",
        "nonce": "0x23",
        "accessList": []
      },
      "additionalContracts": [],
      "isFixedGasLimit": false
    },
    {
      "hash": "0x2bba468226da428f3e20faab1e5a9ce9c0cf4c251eaca1eca32357c10b15dbfd",
      "transactionType": "CALL",
      "contractName": "RevToken",
      "contractAddress": "0xbCfB1bC0ce6c04D1adBbcDEE13e9f94E6fbDc64d",
      "function": "mint(address,uint256):(bool)",
      "arguments": [
        "0x06dae7Ba3958EF288adB0B9b3732eC204E48BC47",
        "10000000000000000000000000000"
      ],
      "transaction": {
        "type": "0x02",
        "from": "0x06dae7ba3958ef288adb0b9b3732ec204e48bc47",
        "to": "0xbcfb1bc0ce6c04d1adbbcdee13e9f94e6fbdc64d",
        "gas": "0x1157a",
        "value": "0x0",
        "data": "0x40c10f1900000000000000000000000006dae7ba3958ef288adb0b9b3732ec204e48bc470000000000000000000000000000000000000000204fce5e3e25026110000000",
        "nonce": "0x24",
        "accessList": []
      },
      "additionalContracts": [],
      "isFixedGasLimit": false
    },
    {
      "hash": "0xc3e90c7b4f0f9e3f5ddb728ed5dbd89ad2a2740257ae4daf81105600da28fe5e",
      "transactionType": "CALL",
      "contractName": "RevToken",
      "contractAddress": "0xcfEE544566ff8156bfC2C20d97f03882be4b5353",
      "function": "mint(address,uint256):(bool)",
      "arguments": [
        "0x06dae7Ba3958EF288adB0B9b3732eC204E48BC47",
        "10000000000000000000000000000"
      ],
      "transaction": {
        "type": "0x02",
        "from": "0x06dae7ba3958ef288adb0b9b3732ec204e48bc47",
        "to": "0xcfee544566ff8156bfc2c20d97f03882be4b5353",
        "gas": "0x1157a",
        "value": "0x0",
        "data": "0x40c10f1900000000000000000000000006dae7ba3958ef288adb0b9b3732ec204e48bc470000000000000000000000000000000000000000204fce5e3e25026110000000",
        "nonce": "0x25",
        "accessList": []
      },
      "additionalContracts": [],
      "isFixedGasLimit": false
    }
  ],
  "receipts": [
    {
      "transactionHash": "0xe0c02df2a55df5c50b8ee7732a449644a93bb9809dca1e24a8659afab5683ea2",
      "transactionIndex": "0x7",
      "blockHash": "0x394c46f98398fad46d108f01359c27d0c092b11fe8561acc295892e3b938968c",
      "blockNumber": "0x4a4801",
      "from": "0x06dae7Ba3958EF288adB0B9b3732eC204E48BC47",
      "to": null,
      "cumulativeGasUsed": "0x128668",
      "gasUsed": "0x861c7",
      "contractAddress": "0xbCfB1bC0ce6c04D1adBbcDEE13e9f94E6fbDc64d",
      "logs": [],
      "status": "0x1",
      "logsBloom": "0x00000000000000000000000000000000000000000000000000000000000000000000000000000000000000000000000000000000000000000000000000000000000000000000000000000000000000000000000000000000000000000000000000000000000000000000000000000000000000000000000000000000000000000000000000000000000000000000000000000000000000000000000000000000000000000000000000000000000000000000000000000000000000000000000000000000000000000000000000000000000000000000000000000000000000000000000000000000000000000000000000000000000000000000000000000000",
      "type": "0x2",
      "effectiveGasPrice": "0xdbf5a6d54"
    },
    {
      "transactionHash": "0x23ca541b8c70336548aa534f1617576d1d473aa94f54f3a4eb2bd1e216c57adb",
      "transactionIndex": "0x8",
      "blockHash": "0x394c46f98398fad46d108f01359c27d0c092b11fe8561acc295892e3b938968c",
      "blockNumber": "0x4a4801",
      "from": "0x06dae7Ba3958EF288adB0B9b3732eC204E48BC47",
      "to": null,
      "cumulativeGasUsed": "0x1ae82f",
      "gasUsed": "0x861c7",
      "contractAddress": "0xcfEE544566ff8156bfC2C20d97f03882be4b5353",
      "logs": [],
      "status": "0x1",
      "logsBloom": "0x00000000000000000000000000000000000000000000000000000000000000000000000000000000000000000000000000000000000000000000000000000000000000000000000000000000000000000000000000000000000000000000000000000000000000000000000000000000000000000000000000000000000000000000000000000000000000000000000000000000000000000000000000000000000000000000000000000000000000000000000000000000000000000000000000000000000000000000000000000000000000000000000000000000000000000000000000000000000000000000000000000000000000000000000000000000",
      "type": "0x2",
      "effectiveGasPrice": "0xdbf5a6d54"
    },
    {
      "transactionHash": "0x51a59776f7c9204d7106faf0b10c43015ea8caf0c64f9df2ba0e40bc2a88f66e",
      "transactionIndex": "0x9",
      "blockHash": "0x394c46f98398fad46d108f01359c27d0c092b11fe8561acc295892e3b938968c",
      "blockNumber": "0x4a4801",
      "from": "0x06dae7Ba3958EF288adB0B9b3732eC204E48BC47",
      "to": "0xbCfB1bC0ce6c04D1adBbcDEE13e9f94E6fbDc64d",
      "cumulativeGasUsed": "0x1bf3df",
      "gasUsed": "0x10bb0",
      "contractAddress": null,
      "logs": [
        {
          "address": "0xbCfB1bC0ce6c04D1adBbcDEE13e9f94E6fbDc64d",
          "topics": [
            "0xddf252ad1be2c89b69c2b068fc378daa952ba7f163c4a11628f55a4df523b3ef",
            "0x0000000000000000000000000000000000000000000000000000000000000000",
            "0x000000000000000000000000539e70a18073436eef2e3314a540a7c71dd4b57b"
          ],
          "data": "0x0000000000000000000000000000000000000000204fce5e3e25026110000000",
          "blockHash": "0x394c46f98398fad46d108f01359c27d0c092b11fe8561acc295892e3b938968c",
          "blockNumber": "0x4a4801",
          "transactionHash": "0x51a59776f7c9204d7106faf0b10c43015ea8caf0c64f9df2ba0e40bc2a88f66e",
          "transactionIndex": "0x9",
          "logIndex": "0x2",
          "removed": false
        }
      ],
      "status": "0x1",
      "logsBloom": "0x00000000000002000000000000000000000100000000000000000000000000000000000000000000000000000000000000000000000000000000000000000000000000000000000000000008000000000000000000000000000000000000000000000000020000000000000000000800000000000000000000000010000000000000200000000000000000000000000000000000000000000000000000000000000000000000000000000000000000000000000000000100000000000000000000000002000000000006000000000000000000000000000000000000000020000000000000000000000000000000000000000000000000000000000000000000",
      "type": "0x2",
      "effectiveGasPrice": "0xdbf5a6d54"
    },
    {
      "transactionHash": "0xe14860faa02d506b64d1da6d66f8fe23ea177730c62d3651138195ef20c0c36d",
      "transactionIndex": "0xa",
      "blockHash": "0x394c46f98398fad46d108f01359c27d0c092b11fe8561acc295892e3b938968c",
      "blockNumber": "0x4a4801",
      "from": "0x06dae7Ba3958EF288adB0B9b3732eC204E48BC47",
      "to": "0xcfEE544566ff8156bfC2C20d97f03882be4b5353",
      "cumulativeGasUsed": "0x1cff8f",
      "gasUsed": "0x10bb0",
      "contractAddress": null,
      "logs": [
        {
          "address": "0xcfEE544566ff8156bfC2C20d97f03882be4b5353",
          "topics": [
            "0xddf252ad1be2c89b69c2b068fc378daa952ba7f163c4a11628f55a4df523b3ef",
            "0x0000000000000000000000000000000000000000000000000000000000000000",
            "0x000000000000000000000000539e70a18073436eef2e3314a540a7c71dd4b57b"
          ],
          "data": "0x0000000000000000000000000000000000000000204fce5e3e25026110000000",
          "blockHash": "0x394c46f98398fad46d108f01359c27d0c092b11fe8561acc295892e3b938968c",
          "blockNumber": "0x4a4801",
          "transactionHash": "0xe14860faa02d506b64d1da6d66f8fe23ea177730c62d3651138195ef20c0c36d",
          "transactionIndex": "0xa",
          "logIndex": "0x3",
          "removed": false
        }
      ],
      "status": "0x1",
      "logsBloom": "0x00000000000000000000000000000000000100000000000000000000000000000000000000000000000000000000000000000000000000000000000000000000000000000000000000000008000000000000000000000000000000000000000000000000020000000000000200000800040000000000000000000010000000000000000000000000000000000000000000000000000000000000000000000000000000000000000000000000000000000000000000000100000000000000000000000002000000000002000000000000000000000000000000000000000020000000000000020000000000000000000000000000000000000000000000000000",
      "type": "0x2",
      "effectiveGasPrice": "0xdbf5a6d54"
    },
    {
      "transactionHash": "0x2bba468226da428f3e20faab1e5a9ce9c0cf4c251eaca1eca32357c10b15dbfd",
      "transactionIndex": "0xb",
      "blockHash": "0x394c46f98398fad46d108f01359c27d0c092b11fe8561acc295892e3b938968c",
      "blockNumber": "0x4a4801",
      "from": "0x06dae7Ba3958EF288adB0B9b3732eC204E48BC47",
      "to": "0xbCfB1bC0ce6c04D1adBbcDEE13e9f94E6fbDc64d",
      "cumulativeGasUsed": "0x1dc873",
      "gasUsed": "0xc8e4",
      "contractAddress": null,
      "logs": [
        {
          "address": "0xbCfB1bC0ce6c04D1adBbcDEE13e9f94E6fbDc64d",
          "topics": [
            "0xddf252ad1be2c89b69c2b068fc378daa952ba7f163c4a11628f55a4df523b3ef",
            "0x0000000000000000000000000000000000000000000000000000000000000000",
            "0x00000000000000000000000006dae7ba3958ef288adb0b9b3732ec204e48bc47"
          ],
          "data": "0x0000000000000000000000000000000000000000204fce5e3e25026110000000",
          "blockHash": "0x394c46f98398fad46d108f01359c27d0c092b11fe8561acc295892e3b938968c",
          "blockNumber": "0x4a4801",
          "transactionHash": "0x2bba468226da428f3e20faab1e5a9ce9c0cf4c251eaca1eca32357c10b15dbfd",
          "transactionIndex": "0xb",
          "logIndex": "0x4",
          "removed": false
        }
      ],
      "status": "0x1",
      "logsBloom": "0x000000000000020000000000000000000000000000000000000000000000000000000000000000000000000000000000000000000000000000000000000000000000000000000000000000080000000000000000000000000000000000000000000000000a0000000000000000000800000000000000000000000010000000000000200000000000000000000000000000000000000000000000000000000000000000000000000000042000000000000000000000000000000000000000000000000002000000000004000000000000000000000000000000000000000020000000000000000000000000000000000000000000000000000000000000000000",
      "type": "0x2",
      "effectiveGasPrice": "0xdbf5a6d54"
    },
    {
      "transactionHash": "0xc3e90c7b4f0f9e3f5ddb728ed5dbd89ad2a2740257ae4daf81105600da28fe5e",
      "transactionIndex": "0xc",
      "blockHash": "0x394c46f98398fad46d108f01359c27d0c092b11fe8561acc295892e3b938968c",
      "blockNumber": "0x4a4801",
      "from": "0x06dae7Ba3958EF288adB0B9b3732eC204E48BC47",
      "to": "0xcfEE544566ff8156bfC2C20d97f03882be4b5353",
      "cumulativeGasUsed": "0x1e9157",
      "gasUsed": "0xc8e4",
      "contractAddress": null,
      "logs": [
        {
          "address": "0xcfEE544566ff8156bfC2C20d97f03882be4b5353",
          "topics": [
            "0xddf252ad1be2c89b69c2b068fc378daa952ba7f163c4a11628f55a4df523b3ef",
            "0x0000000000000000000000000000000000000000000000000000000000000000",
            "0x00000000000000000000000006dae7ba3958ef288adb0b9b3732ec204e48bc47"
          ],
          "data": "0x0000000000000000000000000000000000000000204fce5e3e25026110000000",
          "blockHash": "0x394c46f98398fad46d108f01359c27d0c092b11fe8561acc295892e3b938968c",
          "blockNumber": "0x4a4801",
          "transactionHash": "0xc3e90c7b4f0f9e3f5ddb728ed5dbd89ad2a2740257ae4daf81105600da28fe5e",
          "transactionIndex": "0xc",
          "logIndex": "0x5",
          "removed": false
        }
      ],
      "status": "0x1",
      "logsBloom": "0x000000000000000000000000000000000000000000000000000000000000000000000000000000000000000000000000000000000000000000000000000000000000000000000000000000080000000000000000000000000000000000000000000000000a0000000000000200000800040000000000000000000010000000000000000000000000000000000000000000000000000000000000000000000000000000000000000000042000000000000000000000000000000000000000000000000002000000000000000000000000000000000000000000000000000020000000000000020000000000000000000000000000000000000000000000000000",
      "type": "0x2",
      "effectiveGasPrice": "0xdbf5a6d54"
    }
  ],
  "libraries": [
    "contracts/utils/CreditLib.sol:CreditLib:0x18a744de156c9A1A6B6832fd4E47679146F087fA",
    "contracts/utils/CreditListLib.sol:CreditListLib:0xd3aC493cd5f02A5376849ccb494F233323AABE85",
    "contracts/utils/EscrowLib.sol:EscrowLib:0x2492eF0F83F7041867eC067582d5157290e09B06",
    "contracts/utils/LineFactoryLib.sol:LineFactoryLib:0x9dBeE9024C5DBd990783157c66ac65066cF277E4",
    "contracts/utils/LineLib.sol:LineLib:0xCE95035acd9B5aE1304F652412dB849F8629F377",
    "contracts/utils/SpigotLib.sol:SpigotLib:0x3182c0f682B84D0586F7d2C38fa24a7E720d2359",
    "contracts/utils/SpigotedLineLib.sol:SpigotedLineLib:0xa5De6E2A9503E227cA345f8aeb795A187a32F34e"
  ],
  "pending": [],
  "returns": {},
  "timestamp": 1702326203,
  "chain": 11155111,
  "multi": false,
  "commit": "4162222"
}